{
  "contractName": "CrowdCollab",
  "abi": [
    {
      "inputs": [
        {
          "internalType": "address",
          "name": "creator",
          "type": "address"
        },
        {
          "internalType": "uint256",
          "name": "minContribution",
          "type": "uint256"
        },
        {
          "internalType": "string",
          "name": "description",
          "type": "string"
        }
      ],
      "payable": false,
      "stateMutability": "nonpayable",
      "type": "constructor"
    },
    {
      "constant": true,
      "inputs": [],
      "name": "campaignDescription",
      "outputs": [
        {
          "internalType": "string",
          "name": "",
          "type": "string"
        }
      ],
      "payable": false,
      "stateMutability": "view",
      "type": "function"
    },
    {
      "constant": true,
      "inputs": [],
      "name": "manager",
      "outputs": [
        {
          "internalType": "address",
          "name": "",
          "type": "address"
        }
      ],
      "payable": false,
      "stateMutability": "view",
      "type": "function"
    },
    {
      "constant": true,
      "inputs": [],
      "name": "minimumContribution",
      "outputs": [
        {
          "internalType": "uint256",
          "name": "",
          "type": "uint256"
        }
      ],
      "payable": false,
      "stateMutability": "view",
      "type": "function"
    },
    {
      "constant": true,
      "inputs": [],
      "name": "numberSupporters",
      "outputs": [
        {
          "internalType": "uint256",
          "name": "",
          "type": "uint256"
        }
      ],
      "payable": false,
      "stateMutability": "view",
      "type": "function"
    },
    {
      "constant": true,
      "inputs": [
        {
          "internalType": "uint256",
          "name": "",
          "type": "uint256"
        }
      ],
      "name": "requests",
      "outputs": [
        {
          "internalType": "string",
          "name": "description",
          "type": "string"
        },
        {
          "internalType": "uint256",
          "name": "amount",
          "type": "uint256"
        },
        {
          "internalType": "address payable",
          "name": "recipient",
          "type": "address"
        },
        {
          "internalType": "bool",
          "name": "complete",
          "type": "bool"
        },
        {
          "internalType": "uint256",
          "name": "approvalCount",
          "type": "uint256"
        }
      ],
      "payable": false,
      "stateMutability": "view",
      "type": "function"
    },
    {
      "constant": true,
      "inputs": [
        {
          "internalType": "address",
          "name": "",
          "type": "address"
        }
      ],
      "name": "supporters",
      "outputs": [
        {
          "internalType": "bool",
          "name": "",
          "type": "bool"
        }
      ],
      "payable": false,
      "stateMutability": "view",
      "type": "function"
    },
    {
      "constant": false,
      "inputs": [],
      "name": "contribute",
      "outputs": [],
      "payable": true,
      "stateMutability": "payable",
      "type": "function"
    },
    {
      "constant": false,
      "inputs": [],
      "name": "support",
      "outputs": [],
      "payable": true,
      "stateMutability": "payable",
      "type": "function"
    },
    {
      "constant": false,
      "inputs": [
        {
          "internalType": "string",
          "name": "description",
          "type": "string"
        },
        {
          "internalType": "uint256",
          "name": "amount",
          "type": "uint256"
        },
        {
          "internalType": "address payable",
          "name": "recipient",
          "type": "address"
        }
      ],
      "name": "createRequest",
      "outputs": [],
      "payable": false,
      "stateMutability": "nonpayable",
      "type": "function"
    },
    {
      "constant": false,
      "inputs": [
        {
          "internalType": "uint256",
          "name": "requestId",
          "type": "uint256"
        }
      ],
      "name": "approveRequest",
      "outputs": [],
      "payable": false,
      "stateMutability": "nonpayable",
      "type": "function"
    },
    {
      "constant": false,
      "inputs": [
        {
          "internalType": "uint256",
          "name": "requestId",
          "type": "uint256"
        }
      ],
      "name": "finalizeRequest",
      "outputs": [],
      "payable": false,
      "stateMutability": "nonpayable",
      "type": "function"
    },
    {
      "constant": true,
      "inputs": [],
      "name": "getSummary",
      "outputs": [
        {
          "internalType": "uint256",
          "name": "",
          "type": "uint256"
        },
        {
          "internalType": "uint256",
          "name": "",
          "type": "uint256"
        },
        {
          "internalType": "uint256",
          "name": "",
          "type": "uint256"
        },
        {
          "internalType": "uint256",
          "name": "",
          "type": "uint256"
        },
        {
          "internalType": "address",
          "name": "",
          "type": "address"
        }
      ],
      "payable": false,
      "stateMutability": "view",
      "type": "function"
    },
    {
      "constant": true,
      "inputs": [],
      "name": "getRequestsCount",
      "outputs": [
        {
          "internalType": "uint256",
          "name": "",
          "type": "uint256"
        }
      ],
      "payable": false,
      "stateMutability": "view",
      "type": "function"
    }
  ],
  "bytecode": "0x608060405234801561001057600080fd5b50604051610b83380380610b838339818101604052606081101561003357600080fd5b8151602083015160408085018051915193959294830192918464010000000082111561005e57600080fd5b90830190602082018581111561007357600080fd5b825164010000000081118282018810171561008d57600080fd5b82525081516020918201929091019080838360005b838110156100ba5781810151838201526020016100a2565b50505050905090810190601f1680156100e75780820380516001836020036101000a031916815260200191505b506040525050600080546001600160a01b0319166001600160a01b038616179055506001829055805161012190600290602084019061012a565b505050506101c5565b828054600181600116156101000203166002900490600052602060002090601f016020900481019282601f1061016b57805160ff1916838001178555610198565b82800160010185558215610198579182015b8281111561019857825182559160200191906001019061017d565b506101a49291506101a8565b5090565b6101c291905b808211156101a457600081556001016101ae565b90565b6109af806101d46000396000f3fe6080604052600436106100c25760003560e01c8063647c75e21161007f578063937e09b111610059578063937e09b114610402578063c121b1d214610417578063d7bb99ba1461042c578063d7d1bbdb14610434576100c2565b8063647c75e21461022657806381d12c581461026d5780638a9cfd5514610341576100c2565b806303441006146100c7578063110842cb146100f3578063119f87471461017d5780633410452a146101855780634051ddac146101ac578063481c6a75146101f5575b600080fd5b3480156100d357600080fd5b506100f1600480360360208110156100ea57600080fd5b503561045e565b005b3480156100ff57600080fd5b50610108610524565b6040805160208082528351818301528351919283929083019185019080838360005b8381101561014257818101518382015260200161012a565b50505050905090810190601f16801561016f5780820380516001836020036101000a031916815260200191505b509250505060405180910390f35b6100f16105af565b34801561019157600080fd5b5061019a6105b9565b60408051918252519081900360200190f35b3480156101b857600080fd5b506101c16105c0565b6040805195865260208601949094528484019290925260608401526001600160a01b03166080830152519081900360a00190f35b34801561020157600080fd5b5061020a6105dc565b604080516001600160a01b039092168252519081900360200190f35b34801561023257600080fd5b506102596004803603602081101561024957600080fd5b50356001600160a01b03166105eb565b604080519115158252519081900360200190f35b34801561027957600080fd5b506102976004803603602081101561029057600080fd5b5035610600565b6040518080602001868152602001856001600160a01b03166001600160a01b0316815260200184151515158152602001838152602001828103825287818151815260200191508051906020019080838360005b838110156103025781810151838201526020016102ea565b50505050905090810190601f16801561032f5780820380516001836020036101000a031916815260200191505b50965050505050505060405180910390f35b34801561034d57600080fd5b506100f16004803603606081101561036457600080fd5b81019060208101813564010000000081111561037f57600080fd5b82018360208201111561039157600080fd5b803590602001918460018302840111640100000000831117156103b357600080fd5b91908080601f01602080910402602001604051908101604052809392919081815260200183838082843760009201919091525092955050823593505050602001356001600160a01b03166106d9565b34801561040e57600080fd5b5061019a6107dd565b34801561042357600080fd5b5061019a6107e3565b6100f16107e9565b34801561044057600080fd5b506100f16004803603602081101561045757600080fd5b503561081f565b6000546001600160a01b0316331461047557600080fd5b60006005828154811061048457fe5b906000526020600020906005020190508060020160149054906101000a900460ff16156104b057600080fd5b6002600454816104bc57fe5b048160040154116104cc57600080fd5b600281015460018201546040516001600160a01b039092169181156108fc0291906000818181858888f1935050505015801561050c573d6000803e3d6000fd5b50600201805460ff60a01b1916600160a01b17905550565b6002805460408051602060018416156101000260001901909316849004601f810184900484028201840190925281815292918301828280156105a75780601f1061057c576101008083540402835291602001916105a7565b820191906000526020600020905b81548152906001019060200180831161058a57829003601f168201915b505050505081565b6105b76107e9565b565b6005545b90565b600154600554600454600054929347936001600160a01b031690565b6000546001600160a01b031681565b60036020526000908152604090205460ff1681565b6005818154811061060d57fe5b60009182526020918290206005919091020180546040805160026001841615610100026000190190931692909204601f8101859004850283018501909152808252919350918391908301828280156106a65780601f1061067b576101008083540402835291602001916106a6565b820191906000526020600020905b81548152906001019060200180831161068957829003601f168201915b5050505060018301546002840154600490940154929390926001600160a01b0382169250600160a01b90910460ff169085565b6000546001600160a01b031633146106f057600080fd5b6106f86108a8565b506040805160a08101825284815260208082018590526001600160a01b038416928201929092526000606082018190526080820181905260058054600181018083559282905283518051949593948694929093027f036b6384b5eca791c62761152d0c79bb0604c104a5fb6f4eb0703f3154bb3db0019261077c92849201906108e2565b5060208201516001820155604082015160028201805460608501511515600160a01b0260ff60a01b196001600160a01b039094166001600160a01b031990921691909117929092169190911790556080909101516004909101555050505050565b60015481565b60045481565b60015434116107f757600080fd5b336000908152600360205260409020805460ff19166001908117909155600480549091019055565b3360009081526003602052604090205460ff1661083b57600080fd5b60006005828154811061084a57fe5b600091825260208083203384526003600590930201918201905260409091205490915060ff161561087a57600080fd5b3360009081526003820160205260409020805460ff1916600190811790915560049091018054909101905550565b6040518060a00160405280606081526020016000815260200160006001600160a01b03168152602001600015158152602001600081525090565b828054600181600116156101000203166002900490600052602060002090601f016020900481019282601f1061092357805160ff1916838001178555610950565b82800160010185558215610950579182015b82811115610950578251825591602001919060010190610935565b5061095c929150610960565b5090565b6105bd91905b8082111561095c576000815560010161096656fea265627a7a72315820fdf481bea4a08312dd61f4499f84ab4b3448395d8cca2f543879b9b9f59bfb7464736f6c63430005100032",
  "source": "pragma solidity ^0.5.0;\n\n/**\n * @title Crowd fund smart contract, demonstration to solve problem of center crowd fund model\n * @author Duong Van Sang\n * @dev Crowd Colla is smart contract is contract that allow creators and entrepreneurs to get fund\n * from supporters for their project, and also let supporter join in approving their expense items\n */\ncontract CrowdCollab { \n    /**\n     * Request expense detail information\n     */\n    struct Request {\n        string description;\n        uint amount;\n        address payable recipient;\n        bool complete;\n        mapping(address=>bool) approvals;\n        uint approvalCount; \n    }\n\n    // address of manager, who manages campaign\n     address public manager;\n\n    // min contribution value in ETH\n    uint public minimumContribution;\n\n    // description about your campaign\n    string public campaignDescription;\n\n    // a mapping list of supporter address, to check if address is supporter or not\n    mapping(address=>bool) public supporters;\n\n    // current number of supporter of campaign, \n    // when any one contribute money for project, he/she will be come supporter\n    uint public numberSupporters;\n\n    // list of expense request for project\n    Request[] public requests;\n\n    modifier managerOnly() {\n        require(msg.sender == manager);\n        _;\n    }\n\n    modifier supporterOnly() {\n        require(supporters[msg.sender]);\n        _;\n    }\n\n    /**\n     * @dev init campaign \n     * @param creator who is author and manage project\n     * @param minContribution minimum money can contribute for project (in ETH)\n     * @param description description of campaign, purpose of campaign\n     */\n    constructor(address creator, uint minContribution, string memory description) public {  \n        manager = creator;\n        minimumContribution = minContribution;\n        campaignDescription = description;\n    }\n\n    /**\n     * @dev payable of campaign, where supporter send Ethereum to contribute for campaign\n     */\n    function contribute() public payable {\n        require(msg.value > minimumContribution);\n        supporters[msg.sender] = true;\n        numberSupporters++;\n    }\n\n    /**\n     * @dev payable of campaign, where supporter send Ethereum to contribute for campaign\n     */\n    function support() public payable {\n        contribute();\n    }    \n\n    /**\n     * @dev Create a expense request, only manager of campaign are able to do it\n     * @param description expense purpose\n     * @param amount total money need for expense items\n     * @param recipient who, which address will reiceive money when request is approved\n     */\n    function createRequest(string memory description, uint amount, address payable recipient) \n        public managerOnly {\n        Request memory newRequest = Request({\n            description: description,\n            amount: amount,\n            recipient: recipient,\n            complete: false,\n            approvalCount: 0\n        });\n        requests.push(newRequest);\n    }\n    \n    /**\n     * @dev Approve expense request from manager, apply for supporter only\n     * @param requestId expense request id\n     */\n    function approveRequest(uint requestId) public supporterOnly {\n        Request storage request = requests[requestId];   \n        require(!request.approvals[msg.sender]);\n        request.approvals[msg.sender] = true;\n        request.approvalCount ++;\n    }  \n\n    /**\n     * @dev finalize expense request and transfer money to receiver\n     * @param requestId expense request id\n     */\n    function finalizeRequest(uint requestId) public managerOnly {\n        Request storage request = requests[requestId];\n        require(!request.complete);    \n        require(request.approvalCount > (numberSupporters/2));\n        request.recipient.transfer(request.amount);\n        request.complete = true;\n    } \n\n    /**\n     * @dev get summary information about campaign\n     */\n    function getSummary() public view returns (\n      uint, uint, uint, uint, address\n      ) {\n        return (\n          minimumContribution,\n          address(this).balance,\n          requests.length,\n          numberSupporters,\n          manager\n        );\n    }\n\n    /**\n     * @dev get request number\n     */\n    function getRequestsCount() public view returns (uint) {\n        return requests.length;\n    }\n}\n",
  "sourcePath": "/projects/crowdfundsample/ethereum/contracts/CrowdCollab.sol",
  "compiler": {
    "name": "solc",
    "version": "0.5.16+commit.9c3226ce.Emscripten.clang"
  },
  "schemaVersion": "3.3.2",
  "updatedAt": "2021-04-28T21:38:12.392Z",
  "devdoc": {
    "author": "Duong Van Sang",
    "details": "Crowd Colla is smart contract is contract that allow creators and entrepreneurs to get fund from supporters for their project, and also let supporter join in approving their expense items",
    "methods": {
      "approveRequest(uint256)": {
        "details": "Approve expense request from manager, apply for supporter only",
        "params": {
          "requestId": "expense request id"
        }
      },
      "constructor": {
        "details": "init campaign ",
        "params": {
          "creator": "who is author and manage project",
          "description": "description of campaign, purpose of campaign",
          "minContribution": "minimum money can contribute for project (in ETH)"
        }
      },
      "contribute()": {
        "details": "payable of campaign, where supporter send Ethereum to contribute for campaign"
      },
      "createRequest(string,uint256,address)": {
        "details": "Create a expense request, only manager of campaign are able to do it",
        "params": {
          "amount": "total money need for expense items",
          "description": "expense purpose",
          "recipient": "who, which address will reiceive money when request is approved"
        }
      },
      "finalizeRequest(uint256)": {
        "details": "finalize expense request and transfer money to receiver",
        "params": {
          "requestId": "expense request id"
        }
      },
      "getRequestsCount()": {
        "details": "get request number"
      },
      "getSummary()": {
        "details": "get summary information about campaign"
      },
      "support()": {
        "details": "payable of campaign, where supporter send Ethereum to contribute for campaign"
      }
    },
    "title": "Crowd fund smart contract, demonstration to solve problem of center crowd fund model"
  },
  "userdoc": {
    "methods": {}
  }
}