{
  "contractName": "CrowdCollab",
  "abi": [
    {
      "constant": true,
      "inputs": [],
      "name": "campaignDescription",
      "outputs": [
        {
          "name": "",
          "type": "string"
        }
      ],
      "payable": false,
      "stateMutability": "view",
      "type": "function"
    },
    {
      "constant": true,
      "inputs": [],
      "name": "manager",
      "outputs": [
        {
          "name": "",
          "type": "address"
        }
      ],
      "payable": false,
      "stateMutability": "view",
      "type": "function"
    },
    {
      "constant": true,
      "inputs": [
        {
          "name": "",
          "type": "address"
        }
      ],
      "name": "supporters",
      "outputs": [
        {
          "name": "",
          "type": "bool"
        }
      ],
      "payable": false,
      "stateMutability": "view",
      "type": "function"
    },
    {
      "constant": true,
      "inputs": [
        {
          "name": "",
          "type": "uint256"
        }
      ],
      "name": "requests",
      "outputs": [
        {
          "name": "description",
          "type": "string"
        },
        {
          "name": "amount",
          "type": "uint256"
        },
        {
          "name": "recipient",
          "type": "address"
        },
        {
          "name": "complete",
          "type": "bool"
        },
        {
          "name": "approvalCount",
          "type": "uint256"
        }
      ],
      "payable": false,
      "stateMutability": "view",
      "type": "function"
    },
    {
      "constant": true,
      "inputs": [],
      "name": "minimumContribution",
      "outputs": [
        {
          "name": "",
          "type": "uint256"
        }
      ],
      "payable": false,
      "stateMutability": "view",
      "type": "function"
    },
    {
      "constant": true,
      "inputs": [],
      "name": "numberSupporters",
      "outputs": [
        {
          "name": "",
          "type": "uint256"
        }
      ],
      "payable": false,
      "stateMutability": "view",
      "type": "function"
    },
    {
      "inputs": [
        {
          "name": "creator",
          "type": "address"
        },
        {
          "name": "minContribution",
          "type": "uint256"
        },
        {
          "name": "description",
          "type": "string"
        }
      ],
      "payable": false,
      "stateMutability": "nonpayable",
      "type": "constructor"
    },
    {
      "constant": false,
      "inputs": [],
      "name": "contribute",
      "outputs": [],
      "payable": true,
      "stateMutability": "payable",
      "type": "function"
    },
    {
      "constant": false,
      "inputs": [],
      "name": "support",
      "outputs": [],
      "payable": true,
      "stateMutability": "payable",
      "type": "function"
    },
    {
      "constant": false,
      "inputs": [
        {
          "name": "description",
          "type": "string"
        },
        {
          "name": "amount",
          "type": "uint256"
        },
        {
          "name": "recipient",
          "type": "address"
        }
      ],
      "name": "createRequest",
      "outputs": [],
      "payable": false,
      "stateMutability": "nonpayable",
      "type": "function"
    },
    {
      "constant": false,
      "inputs": [
        {
          "name": "requestId",
          "type": "uint256"
        }
      ],
      "name": "approveRequest",
      "outputs": [],
      "payable": false,
      "stateMutability": "nonpayable",
      "type": "function"
    },
    {
      "constant": false,
      "inputs": [
        {
          "name": "requestId",
          "type": "uint256"
        }
      ],
      "name": "finalizeRequest",
      "outputs": [],
      "payable": false,
      "stateMutability": "nonpayable",
      "type": "function"
    },
    {
      "constant": true,
      "inputs": [],
      "name": "getSummary",
      "outputs": [
        {
          "name": "",
          "type": "uint256"
        },
        {
          "name": "",
          "type": "uint256"
        },
        {
          "name": "",
          "type": "uint256"
        },
        {
          "name": "",
          "type": "uint256"
        },
        {
          "name": "",
          "type": "address"
        }
      ],
      "payable": false,
      "stateMutability": "view",
      "type": "function"
    },
    {
      "constant": true,
      "inputs": [],
      "name": "getRequestsCount",
      "outputs": [
        {
          "name": "",
          "type": "uint256"
        }
      ],
      "payable": false,
      "stateMutability": "view",
      "type": "function"
    }
  ],
  "bytecode": "0x608060405234801561001057600080fd5b50604051610a8b380380610a8b83398101604090815281516020808401519284015160008054600160a060020a031916600160a060020a038516179055600184905590930180519193909161006b9160029190840190610074565b5050505061010f565b828054600181600116156101000203166002900490600052602060002090601f016020900481019282601f106100b557805160ff19168380011785556100e2565b828001600101855582156100e2579182015b828111156100e25782518255916020019190600101906100c7565b506100ee9291506100f2565b5090565b61010c91905b808211156100ee57600081556001016100f8565b90565b61096d8061011e6000396000f3006080604052600436106100c45763ffffffff7c01000000000000000000000000000000000000000000000000000000006000350416630344100681146100c9578063110842cb146100e3578063119f87471461016d5780633410452a146101755780634051ddac1461019c578063481c6a75146101e5578063647c75e21461021657806381d12c581461024b5780638a9cfd551461030d578063937e09b114610377578063c121b1d21461038c578063d7bb99ba146103a1578063d7d1bbdb146103a9575b600080fd5b3480156100d557600080fd5b506100e16004356103c1565b005b3480156100ef57600080fd5b506100f86104a7565b6040805160208082528351818301528351919283929083019185019080838360005b8381101561013257818101518382015260200161011a565b50505050905090810190601f16801561015f5780820380516001836020036101000a031916815260200191505b509250505060405180910390f35b6100e1610532565b34801561018157600080fd5b5061018a61053c565b60408051918252519081900360200190f35b3480156101a857600080fd5b506101b1610543565b604080519586526020860194909452848401929092526060840152600160a060020a03166080830152519081900360a00190f35b3480156101f157600080fd5b506101fa610560565b60408051600160a060020a039092168252519081900360200190f35b34801561022257600080fd5b50610237600160a060020a036004351661056f565b604080519115158252519081900360200190f35b34801561025757600080fd5b50610263600435610584565b604051808060200186815260200185600160a060020a0316600160a060020a0316815260200184151515158152602001838152602001828103825287818151815260200191508051906020019080838360005b838110156102ce5781810151838201526020016102b6565b50505050905090810190601f1680156102fb5780820380516001836020036101000a031916815260200191505b50965050505050505060405180910390f35b34801561031957600080fd5b506040805160206004803580820135601f81018490048402850184019095528484526100e19436949293602493928401919081908401838280828437509497505084359550505050602090910135600160a060020a0316905061066f565b34801561038357600080fd5b5061018a6107a2565b34801561039857600080fd5b5061018a6107a8565b6100e16107ae565b3480156103b557600080fd5b506100e16004356107e4565b60008054600160a060020a031633146103d957600080fd5b60058054839081106103e757fe5b906000526020600020906005020190508060020160149054906101000a900460ff1615151561041557600080fd5b60045460029004816004015411151561042d57600080fd5b60028101546001820154604051600160a060020a039092169181156108fc0291906000818181858888f1935050505015801561046d573d6000803e3d6000fd5b50600201805474ff000000000000000000000000000000000000000019167401000000000000000000000000000000000000000017905550565b6002805460408051602060018416156101000260001901909316849004601f8101849004840282018401909252818152929183018282801561052a5780601f106104ff5761010080835404028352916020019161052a565b820191906000526020600020905b81548152906001019060200180831161050d57829003601f168201915b505050505081565b61053a6107ae565b565b6005545b90565b6001546005546004546000549293303193600160a060020a031690565b600054600160a060020a031681565b60036020526000908152604090205460ff1681565b600580548290811061059257fe5b60009182526020918290206005919091020180546040805160026001841615610100026000190190931692909204601f81018590048502830185019091528082529193509183919083018282801561062b5780601f106106005761010080835404028352916020019161062b565b820191906000526020600020905b81548152906001019060200180831161060e57829003601f168201915b505050506001830154600284015460049094015492939092600160a060020a03821692507401000000000000000000000000000000000000000090910460ff169085565b61067761086e565b600054600160a060020a0316331461068e57600080fd5b506040805160a0810182528481526020808201859052600160a060020a038416928201929092526000606082018190526080820181905260058054600181018083559282905283518051949593948694929093027f036b6384b5eca791c62761152d0c79bb0604c104a5fb6f4eb0703f3154bb3db0019261071292849201906108a9565b5060208201516001820155604082015160028201805460608501511515740100000000000000000000000000000000000000000274ff000000000000000000000000000000000000000019600160a060020a0390941673ffffffffffffffffffffffffffffffffffffffff1990921691909117929092169190911790556080909101516004909101555050505050565b60015481565b60045481565b60015434116107bc57600080fd5b336000908152600360205260409020805460ff19166001908117909155600480549091019055565b3360009081526003602052604081205460ff16151561080257600080fd5b600580548390811061081057fe5b600091825260208083203384526003600590930201918201905260409091205490915060ff161561084057600080fd5b3360009081526003820160205260409020805460ff1916600190811790915560049091018054909101905550565b60a06040519081016040528060608152602001600081526020016000600160a060020a03168152602001600015158152602001600081525090565b828054600181600116156101000203166002900490600052602060002090601f016020900481019282601f106108ea57805160ff1916838001178555610917565b82800160010185558215610917579182015b828111156109175782518255916020019190600101906108fc565b50610923929150610927565b5090565b61054091905b80821115610923576000815560010161092d5600a165627a7a723058202eb4f25e0f117ce0f463116b6c4d2e423b0a81f271b97618db7a8ee15d9a07600029",
  "source": "pragma solidity ^0.4.25;\n\n/**\n * @title Crowd fund smart contract, demonstration to solve problem of center crowd fund model\n * @author Duong Van Sang\n * @dev Crowd Colla is smart contract is contract that allow creators and entrepreneurs to get fund\n * from supporters for their project, and also let supporter join in approving their expense items\n */\ncontract CrowdCollab { \n    /**\n     * Request expense detail information\n     */\n    struct Request {\n        string description;\n        uint amount;\n        address recipient;\n        bool complete;\n        mapping(address=>bool) approvals;\n        uint approvalCount; \n    }\n\n    // address of manager, who manages campaign\n    address public manager;\n\n    // min contribution value in ETH\n    uint public minimumContribution;\n\n    // description about your campaign\n    string public campaignDescription;\n\n    // a mapping list of supporter address, to check if address is supporter or not\n    mapping(address=>bool) public supporters;\n\n    // current number of supporter of campaign, \n    // when any one contribute money for project, he/she will be come supporter\n    uint public numberSupporters;\n\n    // list of expense request for project\n    Request[] public requests;\n\n    modifier managerOnly() {\n        require(msg.sender == manager);\n        _;\n    }\n\n    modifier supporterOnly() {\n        require(supporters[msg.sender]);\n        _;\n    }\n\n    /**\n     * @dev init campaign \n     * @param creator who is author and manage project\n     * @param minContribution minimum money can contribute for project (in ETH)\n     * @param description description of campaign, purpose of campaign\n     */\n    constructor(address creator, uint minContribution, string description) public {  \n        manager = creator;\n        minimumContribution = minContribution;\n        campaignDescription = description;\n    }\n\n    /**\n     * @dev payable of campaign, where supporter send Ethereum to contribute for campaign\n     */\n    function contribute() public payable {\n        require(msg.value > minimumContribution);\n        supporters[msg.sender] = true;\n        numberSupporters++;\n    }\n\n    /**\n     * @dev payable of campaign, where supporter send Ethereum to contribute for campaign\n     */\n    function support() public payable {\n        contribute();\n    }    \n\n    /**\n     * @dev Create a expense request, only manager of campaign are able to do it\n     * @param description expense purpose\n     * @param amount total money need for expense items\n     * @param recipient who, which address will reiceive money when request is approved\n     */\n    function createRequest(string description, uint amount, address recipient) \n        public managerOnly {\n        Request memory newRequest = Request({\n            description: description,\n            amount: amount,\n            recipient: recipient,\n            complete: false,\n            approvalCount: 0\n        });\n        requests.push(newRequest);\n    }\n    \n    /**\n     * @dev Approve expense request from manager, apply for supporter only\n     * @param requestId expense request id\n     */\n    function approveRequest(uint requestId) public supporterOnly {\n        Request storage request = requests[requestId];   \n        require(!request.approvals[msg.sender]);\n        request.approvals[msg.sender] = true;\n        request.approvalCount ++;\n    }  \n\n    /**\n     * @dev finalize expense request and transfer money to receiver\n     * @param requestId expense request id\n     */\n    function finalizeRequest(uint requestId) public managerOnly {\n        Request storage request = requests[requestId];\n        require(!request.complete);    \n        require(request.approvalCount > (numberSupporters/2));\n        request.recipient.transfer(request.amount);\n        request.complete = true;\n    } \n\n    /**\n     * @dev get summary information about campaign\n     */\n    function getSummary() public view returns (\n      uint, uint, uint, uint, address\n      ) {\n        return (\n          minimumContribution,\n          address(this).balance,\n          requests.length,\n          numberSupporters,\n          manager\n        );\n    }\n\n    /**\n     * @dev get request number\n     */\n    function getRequestsCount() public view returns (uint) {\n        return requests.length;\n    }\n}\n",
  "sourcePath": "/Data/projects/MPL/crowdfundsample/ethereum/contracts/CrowdCollab.sol",
  "compiler": {
    "name": "solc",
    "version": "0.4.25+commit.59dbf8f1.Emscripten.clang"
  },
  "schemaVersion": "2.0.2",
  "updatedAt": "2019-02-10T03:27:49.715Z"
}